{
  "_format": "hh-sol-artifact-1",
  "contractName": "CreatePost",
  "sourceName": "contracts/CreatePost.sol",
  "abi": [
    {
      "anonymous": false,
      "inputs": [
        {
          "indexed": false,
          "internalType": "uint256",
          "name": "id",
          "type": "uint256"
        },
        {
          "indexed": false,
          "internalType": "string",
          "name": "text",
          "type": "string"
        },
        {
          "indexed": false,
          "internalType": "string",
          "name": "hash",
          "type": "string"
        },
        {
          "indexed": false,
          "internalType": "string",
          "name": "title",
          "type": "string"
        },
        {
          "indexed": false,
          "internalType": "address",
          "name": "author",
          "type": "address"
        }
      ],
      "name": "PostCreated",
      "type": "event"
    },
    {
      "inputs": [
        {
          "internalType": "string",
          "name": "_videoHash",
          "type": "string"
        },
        {
          "internalType": "string",
          "name": "_text",
          "type": "string"
        },
        {
          "internalType": "string",
          "name": "_title",
          "type": "string"
        }
      ],
      "name": "createPost",
      "outputs": [],
      "stateMutability": "nonpayable",
      "type": "function"
    },
    {
      "inputs": [],
      "name": "getAllPosts",
      "outputs": [
        {
          "components": [
            {
              "internalType": "uint256",
              "name": "id",
              "type": "uint256"
            },
            {
              "internalType": "string",
              "name": "text",
              "type": "string"
            },
            {
              "internalType": "string",
              "name": "hash",
              "type": "string"
            },
            {
              "internalType": "string",
              "name": "title",
              "type": "string"
            },
            {
              "internalType": "address",
              "name": "author",
              "type": "address"
            }
          ],
          "internalType": "struct CreatePost.PostStruct[]",
          "name": "",
          "type": "tuple[]"
        }
      ],
      "stateMutability": "view",
      "type": "function"
    },
    {
      "inputs": [],
      "name": "getPostCount",
      "outputs": [
        {
          "internalType": "uint256",
          "name": "",
          "type": "uint256"
        }
      ],
      "stateMutability": "view",
      "type": "function"
    }
  ],
  "bytecode": "0x60806040526000805534801561001457600080fd5b50610bbb806100246000396000f3fe608060405234801561001057600080fd5b50600436106100415760003560e01c80633056110014610046578063bcc9540714610064578063e8a4a1eb14610082575b600080fd5b61004e61009e565b60405161005b919061085c565b60405180910390f35b61006c610313565b604051610079919061087e565b60405180910390f35b61009c6004803603810190610097919061060a565b61031c565b005b60606001805480602002602001604051908101604052809291908181526020016000905b8282101561030a57838290600052602060002090600502016040518060a0016040529081600082015481526020016001820180546100ff90610a3b565b80601f016020809104026020016040519081016040528092919081815260200182805461012b90610a3b565b80156101785780601f1061014d57610100808354040283529160200191610178565b820191906000526020600020905b81548152906001019060200180831161015b57829003601f168201915b5050505050815260200160028201805461019190610a3b565b80601f01602080910402602001604051908101604052809291908181526020018280546101bd90610a3b565b801561020a5780601f106101df5761010080835404028352916020019161020a565b820191906000526020600020905b8154815290600101906020018083116101ed57829003601f168201915b5050505050815260200160038201805461022390610a3b565b80601f016020809104026020016040519081016040528092919081815260200182805461024f90610a3b565b801561029c5780601f106102715761010080835404028352916020019161029c565b820191906000526020600020905b81548152906001019060200180831161027f57829003601f168201915b505050505081526020016004820160009054906101000a900473ffffffffffffffffffffffffffffffffffffffff1673ffffffffffffffffffffffffffffffffffffffff1673ffffffffffffffffffffffffffffffffffffffff1681525050815260200190600101906100c2565b50505050905090565b60008054905090565b6000825111801561032f57506101f58251105b61033857600080fd5b600083511161034657600080fd5b600081511161035457600080fd5b600073ffffffffffffffffffffffffffffffffffffffff163373ffffffffffffffffffffffffffffffffffffffff16141561038e57600080fd5b6000808154809291906103a090610a9e565b919050555060016040518060a0016040528060005481526020018481526020018581526020018381526020013373ffffffffffffffffffffffffffffffffffffffff1681525090806001815401808255809150506001900390600052602060002090600502016000909190919091506000820151816000015560208201518160010190805190602001906104359291906104ff565b5060408201518160020190805190602001906104529291906104ff565b50606082015181600301908051906020019061046f9291906104ff565b5060808201518160040160006101000a81548173ffffffffffffffffffffffffffffffffffffffff021916908373ffffffffffffffffffffffffffffffffffffffff16021790555050507f50c12bd688c595315f0d353d1459d5ce4cfa2013ad3595250f440198265ba0d6600054838584336040516104f2959493929190610899565b60405180910390a1505050565b82805461050b90610a3b565b90600052602060002090601f01602090048101928261052d5760008555610574565b82601f1061054657805160ff1916838001178555610574565b82800160010185558215610574579182015b82811115610573578251825591602001919060010190610558565b5b5090506105819190610585565b5090565b5b8082111561059e576000816000905550600101610586565b5090565b60006105b56105b084610926565b610901565b9050828152602081018484840111156105cd57600080fd5b6105d88482856109f9565b509392505050565b600082601f8301126105f157600080fd5b81356106018482602086016105a2565b91505092915050565b60008060006060848603121561061f57600080fd5b600084013567ffffffffffffffff81111561063957600080fd5b610645868287016105e0565b935050602084013567ffffffffffffffff81111561066257600080fd5b61066e868287016105e0565b925050604084013567ffffffffffffffff81111561068b57600080fd5b610697868287016105e0565b9150509250925092565b60006106ad83836107ba565b905092915050565b6106be816109bd565b82525050565b6106cd816109bd565b82525050565b60006106de82610967565b6106e8818561098a565b9350836020820285016106fa85610957565b8060005b85811015610736578484038952815161071785826106a1565b94506107228361097d565b925060208a019950506001810190506106fe565b50829750879550505050505092915050565b600061075382610972565b61075d818561099b565b935061076d818560208601610a08565b61077681610b74565b840191505092915050565b600061078c82610972565b61079681856109ac565b93506107a6818560208601610a08565b6107af81610b74565b840191505092915050565b600060a0830160008301516107d2600086018261083e565b50602083015184820360208601526107ea8282610748565b915050604083015184820360408601526108048282610748565b9150506060830151848203606086015261081e8282610748565b915050608083015161083360808601826106b5565b508091505092915050565b610847816109ef565b82525050565b610856816109ef565b82525050565b6000602082019050818103600083015261087681846106d3565b905092915050565b6000602082019050610893600083018461084d565b92915050565b600060a0820190506108ae600083018861084d565b81810360208301526108c08187610781565b905081810360408301526108d48186610781565b905081810360608301526108e88185610781565b90506108f760808301846106c4565b9695505050505050565b600061090b61091c565b90506109178282610a6d565b919050565b6000604051905090565b600067ffffffffffffffff82111561094157610940610b45565b5b61094a82610b74565b9050602081019050919050565b6000819050602082019050919050565b600081519050919050565b600081519050919050565b6000602082019050919050565b600082825260208201905092915050565b600082825260208201905092915050565b600082825260208201905092915050565b60006109c8826109cf565b9050919050565b600073ffffffffffffffffffffffffffffffffffffffff82169050919050565b6000819050919050565b82818337600083830152505050565b60005b83811015610a26578082015181840152602081019050610a0b565b83811115610a35576000848401525b50505050565b60006002820490506001821680610a5357607f821691505b60208210811415610a6757610a66610b16565b5b50919050565b610a7682610b74565b810181811067ffffffffffffffff82111715610a9557610a94610b45565b5b80604052505050565b6000610aa9826109ef565b91507fffffffffffffffffffffffffffffffffffffffffffffffffffffffffffffffff821415610adc57610adb610ae7565b5b600182019050919050565b7f4e487b7100000000000000000000000000000000000000000000000000000000600052601160045260246000fd5b7f4e487b7100000000000000000000000000000000000000000000000000000000600052602260045260246000fd5b7f4e487b7100000000000000000000000000000000000000000000000000000000600052604160045260246000fd5b6000601f19601f830116905091905056fea2646970667358221220da93365ea6d692f35a84f724aaadf9a96cf7c2d5ca45c298bb126b984a46a98a64736f6c63430008040033",
  "linkReferences": {},
  "deployedLinkReferences": {}
}