{
  "_format": "hh-sol-artifact-1",
  "contractName": "CreatePost",
  "sourceName": "contracts/CreatePost.sol",
  "abi": [
    {
      "inputs": [],
      "stateMutability": "nonpayable",
      "type": "constructor"
    },
    {
      "anonymous": false,
      "inputs": [
        {
          "indexed": false,
          "internalType": "uint256",
          "name": "id",
          "type": "uint256"
        },
        {
          "indexed": false,
          "internalType": "string",
          "name": "text",
          "type": "string"
        },
        {
          "indexed": false,
          "internalType": "string",
          "name": "hash",
          "type": "string"
        },
        {
          "indexed": false,
          "internalType": "string",
          "name": "title",
          "type": "string"
        },
        {
          "indexed": false,
          "internalType": "address",
          "name": "author",
          "type": "address"
        }
      ],
      "name": "PostCreated",
      "type": "event"
    },
    {
      "inputs": [
        {
          "internalType": "string",
          "name": "_videoHash",
          "type": "string"
        },
        {
          "internalType": "string",
          "name": "_text",
          "type": "string"
        },
        {
          "internalType": "string",
          "name": "_title",
          "type": "string"
        }
      ],
      "name": "createPost",
      "outputs": [],
      "stateMutability": "nonpayable",
      "type": "function"
    },
    {
      "inputs": [],
      "name": "name",
      "outputs": [
        {
          "internalType": "string",
          "name": "",
          "type": "string"
        }
      ],
      "stateMutability": "view",
      "type": "function"
    },
    {
      "inputs": [],
      "name": "postCount",
      "outputs": [
        {
          "internalType": "uint256",
          "name": "",
          "type": "uint256"
        }
      ],
      "stateMutability": "view",
      "type": "function"
    },
    {
      "inputs": [
        {
          "internalType": "uint256",
          "name": "",
          "type": "uint256"
        }
      ],
      "name": "posts",
      "outputs": [
        {
          "internalType": "uint256",
          "name": "id",
          "type": "uint256"
        },
        {
          "internalType": "string",
          "name": "text",
          "type": "string"
        },
        {
          "internalType": "string",
          "name": "hash",
          "type": "string"
        },
        {
          "internalType": "string",
          "name": "title",
          "type": "string"
        },
        {
          "internalType": "address",
          "name": "author",
          "type": "address"
        }
      ],
      "stateMutability": "view",
      "type": "function"
    }
  ],
  "bytecode": "0x6080604052600080556040518060400160405280600a81526020017f437265617465506f73740000000000000000000000000000000000000000000081525060019080519060200190610053929190610066565b5034801561006057600080fd5b5061016a565b82805461007290610109565b90600052602060002090601f01602090048101928261009457600085556100db565b82601f106100ad57805160ff19168380011785556100db565b828001600101855582156100db579182015b828111156100da5782518255916020019190600101906100bf565b5b5090506100e891906100ec565b5090565b5b808211156101055760008160009055506001016100ed565b5090565b6000600282049050600182168061012157607f821691505b602082108114156101355761013461013b565b5b50919050565b7f4e487b7100000000000000000000000000000000000000000000000000000000600052602260045260246000fd5b610a8f806101796000396000f3fe608060405234801561001057600080fd5b506004361061004c5760003560e01c806306fdde03146100515780630b1e7f831461006f57806317906c2e146100a3578063e8a4a1eb146100c1575b600080fd5b6100596100dd565b6040516100669190610763565b60405180910390f35b610089600480360381019061008491906106e3565b61016b565b60405161009a9594939291906107a0565b60405180910390f35b6100ab610359565b6040516100b89190610785565b60405180910390f35b6100db60048036038101906100d6919061064c565b61035f565b005b600180546100ea906108f8565b80601f0160208091040260200160405190810160405280929190818152602001828054610116906108f8565b80156101635780601f1061013857610100808354040283529160200191610163565b820191906000526020600020905b81548152906001019060200180831161014657829003601f168201915b505050505081565b6002602052806000526040600020600091509050806000015490806001018054610194906108f8565b80601f01602080910402602001604051908101604052809291908181526020018280546101c0906108f8565b801561020d5780601f106101e25761010080835404028352916020019161020d565b820191906000526020600020905b8154815290600101906020018083116101f057829003601f168201915b505050505090806002018054610222906108f8565b80601f016020809104026020016040519081016040528092919081815260200182805461024e906108f8565b801561029b5780601f106102705761010080835404028352916020019161029b565b820191906000526020600020905b81548152906001019060200180831161027e57829003601f168201915b5050505050908060030180546102b0906108f8565b80601f01602080910402602001604051908101604052809291908181526020018280546102dc906108f8565b80156103295780601f106102fe57610100808354040283529160200191610329565b820191906000526020600020905b81548152906001019060200180831161030c57829003601f168201915b5050505050908060040160009054906101000a900473ffffffffffffffffffffffffffffffffffffffff16905085565b60005481565b6000825111801561037257506101f58251105b61037b57600080fd5b600083511161038957600080fd5b600081511161039757600080fd5b600073ffffffffffffffffffffffffffffffffffffffff163373ffffffffffffffffffffffffffffffffffffffff1614156103d157600080fd5b6000808154809291906103e39061095b565b91905055506040518060a0016040528060005481526020018381526020018481526020018281526020013373ffffffffffffffffffffffffffffffffffffffff16815250600260008054815260200190815260200160002060008201518160000155602082015181600101908051906020019061046192919061052c565b50604082015181600201908051906020019061047e92919061052c565b50606082015181600301908051906020019061049b92919061052c565b5060808201518160040160006101000a81548173ffffffffffffffffffffffffffffffffffffffff021916908373ffffffffffffffffffffffffffffffffffffffff1602179055509050507f50c12bd688c595315f0d353d1459d5ce4cfa2013ad3595250f440198265ba0d66000548385843360405161051f9594939291906107a0565b60405180910390a1505050565b828054610538906108f8565b90600052602060002090601f01602090048101928261055a57600085556105a1565b82601f1061057357805160ff19168380011785556105a1565b828001600101855582156105a1579182015b828111156105a0578251825591602001919060010190610585565b5b5090506105ae91906105b2565b5090565b5b808211156105cb5760008160009055506001016105b3565b5090565b60006105e26105dd8461082d565b610808565b9050828152602081018484840111156105fa57600080fd5b6106058482856108b6565b509392505050565b600082601f83011261061e57600080fd5b813561062e8482602086016105cf565b91505092915050565b60008135905061064681610a42565b92915050565b60008060006060848603121561066157600080fd5b600084013567ffffffffffffffff81111561067b57600080fd5b6106878682870161060d565b935050602084013567ffffffffffffffff8111156106a457600080fd5b6106b08682870161060d565b925050604084013567ffffffffffffffff8111156106cd57600080fd5b6106d98682870161060d565b9150509250925092565b6000602082840312156106f557600080fd5b600061070384828501610637565b91505092915050565b6107158161087a565b82525050565b60006107268261085e565b6107308185610869565b93506107408185602086016108c5565b61074981610a31565b840191505092915050565b61075d816108ac565b82525050565b6000602082019050818103600083015261077d818461071b565b905092915050565b600060208201905061079a6000830184610754565b92915050565b600060a0820190506107b56000830188610754565b81810360208301526107c7818761071b565b905081810360408301526107db818661071b565b905081810360608301526107ef818561071b565b90506107fe608083018461070c565b9695505050505050565b6000610812610823565b905061081e828261092a565b919050565b6000604051905090565b600067ffffffffffffffff82111561084857610847610a02565b5b61085182610a31565b9050602081019050919050565b600081519050919050565b600082825260208201905092915050565b60006108858261088c565b9050919050565b600073ffffffffffffffffffffffffffffffffffffffff82169050919050565b6000819050919050565b82818337600083830152505050565b60005b838110156108e35780820151818401526020810190506108c8565b838111156108f2576000848401525b50505050565b6000600282049050600182168061091057607f821691505b60208210811415610924576109236109d3565b5b50919050565b61093382610a31565b810181811067ffffffffffffffff8211171561095257610951610a02565b5b80604052505050565b6000610966826108ac565b91507fffffffffffffffffffffffffffffffffffffffffffffffffffffffffffffffff821415610999576109986109a4565b5b600182019050919050565b7f4e487b7100000000000000000000000000000000000000000000000000000000600052601160045260246000fd5b7f4e487b7100000000000000000000000000000000000000000000000000000000600052602260045260246000fd5b7f4e487b7100000000000000000000000000000000000000000000000000000000600052604160045260246000fd5b6000601f19601f8301169050919050565b610a4b816108ac565b8114610a5657600080fd5b5056fea2646970667358221220e224edfb6e0c56091a53744efa96601add6d0535d2ed7f534e390aa85696019164736f6c63430008040033",
  "linkReferences": {},
  "deployedLinkReferences": {}
}